:020000040000FA
:020000006D2869
:040002000034003492
:08000800A500030EA4000C1B6F
:100010003E288C1A0C285428831203131A08B500A2
:10002000B60A2C303502031D1D28B6014008BA005F
:100030004108BB004208BC00542800303502031DB3
:100040002928B6014008BD004108BE004208BF0093
:100050005428360882072F2834283928B601303032
:100060003502C000B60A542830303502C100B60A45
:10007000542830303502C200B60A54280C132D180B
:100080004A28831203131E08AA0083120313453063
:100090009F005228831203131E08AB008312031320
:1000A00041309F00FF30AD06240E8300A50E250EC3
:1000B0008B1709008F058207773442346D346B3417
:1000C0005A343B343F3462347F347B347E341F34C3
:0A00D00035344F343D343C34080051
:0600DA0039217121AE0185
:1000E000AF01B001B101B201B30134219F1C9F14D3
:1000F000B40A0230B402031D7628B40164302A0227
:100100000318AA000318AE0A03187E280A302A0230
:100110000318AA000318AF0A0318862801302A0220
:100120000318AA000318B00A03188E2864302B02A3
:100130000318AB000318B10A031896280A302B02E3
:100140000318AB000318B20A03189E2801302B02D3
:100150000318AB000318B30A0318A628E820FB20F5
:100160003030AE073030AF073030B0073030B10735
:100170003030B2073030B3072E0899000C1EBE286D
:1001800034212F0899000C1EC3283421300899000F
:100190000C1EC82834212C3099000C1ECD28342187
:1001A00034213421310899000C1ED428342132081E
:1001B00099000C1ED9283421330899000C1EDE2822
:1001C00034210A3099000C1EE32834216F28E728D7
:1001D0003A08A2003B08A1003C08A6003D08A70081
:1001E0003E08A8003F08A9000800A30A0630230221
:1001F0000319A30108008601003023020319142902
:1002000001302302031919290230230203191E2980
:100210000330230203192329043023020319282958
:100220000530230203192D2922085A2088000614BC
:10023000322921085A2088008614322926085A209B
:1002400088000615322927085A2088008615322989
:1002500028085A2088000616322929085A208800C2
:1002600086163229F5200800FF30A000A00B3629A1
:1002700008008316031386018801FF30870083126C
:1002800003138501870188018601A101A201AD0147
:10029000AA01AB01BA01BB01BC01BD01BE01BF0196
:1002A0008316031300309F0083160313051485146F
:1002B00083160317081488148312031341309F0018
:1002C00083160313193099009A01181518129816FD
:1002D0001813831603178711831203139817181620
:1002E0000800831603130C178C16831203138B1745
:0602F0000B170C130800BF
:02400E00D420BC
:02401000FF3F70
:00000001FF
