:020000040000FA
:0200000077285F
:040002000034003492
:080008000B190B288C1A1628B5
:100010000C1B46285E28C40A4408053C031D5E28C4
:10002000C401ED3081000B1105215E2883120313FA
:100030001A08C3002C3C031D2528B6014008BA004D
:100040004108BB004208BC005E2800304302031D8B
:100050003128B6014008BD004108BE004208BF007B
:100060005E283608820737283C284128B601303000
:10007000C302C000B60A5E283030C302C100B60A0F
:100080005E283030C302C200B60A5E280C13831209
:1000900003131E081F195128AA00831203131F15EA
:1000A0005528AB00831203131F110000000000004D
:1000B00000000000831203139F1C9F14240E830072
:1000C000A50E250E8B1709008F0582077734423461
:1000D0006D346B345A343B343F3462347F347B3478
:0E00E0007E341F3435344F343D343C34080038
:0200EE004321AC
:1000F00088217B21AE01AF01B001B101B201B30192
:100100003E219F1C9F14B40A0230B402031D8128B3
:10011000B40164302A020318AA000318AE0A0318B7
:1001200089280A302A020318AA000318AF0A031804
:10013000912801302A020318AA000318B00A0318F4
:10014000992864302B020318AB000318B10A031876
:10015000A1280A302B020318AB000318B20A0318B7
:10016000A92801302B020318AB000318B30A0318A7
:10017000B128F2203030AE073030AF073030B00752
:100180003030B1073030B2073030B3072E08990055
:100190000C1EC8283E212F0899000C1ECD283E2198
:1001A000300899000C1ED2283E212C3099000C1EDC
:1001B000D7283E213E213E21310899000C1EDE2821
:1001C0003E21320899000C1EE3283E213308990095
:1001D0000C1EE8283E210A3099000C1EED283E2115
:1001E0007A28F1283A08A2003B08A1003C08A600A2
:1001F0003D08A7003E08A8003F08A9000800A30A80
:10020000063023020319A3010800860100302302EF
:1002100003191E2901302302031923290230230266
:10022000031928290330230203192D29043023023E
:1002300003193229053023020319372922086420C3
:10024000880006143C2921086420880086143C2973
:1002500026086420880006153C29270864208800A9
:1002600086153C2928086420880006163C292908A0
:100270006420880086163C29FF200800FF30A0007B
:10028000A00B402908008316031386018801FF3064
:100290008700831203138501870188018601A1016C
:1002A000A201AD01AA01AB01BA01BB01BC01BD01B4
:1002B000BE01BF018316031300309F008316031392
:1002C0000514851483160317081488148312031366
:1002D00041309F0083160313193099009A011815B5
:1002E0001812981618138316031787118312031315
:1002F000981718160800831603138112811101152F
:100300008114011483120313ED3081000B110800D6
:10031000831603130C178C16831203138B170B17FA
:040320000C130800B2
:02400E00D420BC
:02401000FF3F70
:00000001FF
