:020000040000FA
:020000002528B1
:040002000034003492
:08000800A500030EA4000C1377
:10001000831203131E08A800240E8300A50E250ECC
:100020008B1709008F058207773442346D346B34A7
:100030005A343B343F3462347F347A347E341F3454
:0A00400035344F343D343C340800E1
:06004A0071209C206C20D7
:100050009F1C9F1428080C1A831203139900322046
:100060004520312828080F39A200280E0F39A10099
:1000700029080F39A600290E0F39A7000800A30A86
:10008000043023020319A301080088010030230271
:10009000031956280130230203195B28023023027A
:1000A000031960280330230203196528220812204F
:1000B000870008146A2821081220870088146A28FB
:1000C00026081220870008156A28270812208700B2
:1000D00088156A283F200800FF30A000A00B6E287A
:1000E0000800831603138601880187018312031316
:1000F0008501870188018601A101A20183160313EE
:1001000000309F0083160313051483160317081489
:100110008312031341309F0083160313CF309900DD
:100120009A011811181298161813831603178711BD
:100130008312031398170800831603130C178312F6
:0A01400003138B170B170C130800B4
:02400E00D420BC
:02401000FF3F70
:00000001FF
