:020000040000FA
:020000003628A0
:040002000034003492
:08000800A500030EA4000C1377
:100010002A181328831203131E08A800831203133F
:1000200045309F001B28831203131E08A90083126A
:10003000031341309F00FF30AA06240E8300A50E53
:10004000250E8B1709008F058207773442346D34F3
:100050006B345A343B343F3462347F347B347E34E7
:0C0060001F3435344F343D343C3408006C
:04006C007F20AF2022
:100070007A209F1C9F147A204020532038283F2844
:1000800028080F39A200280E0F39A10029080F39BE
:10009000A600290E0F39A7000800A30A0430230286
:1000A0000319A30108008601003023020319642804
:1000B00001302302031969280230230203196E2834
:1000C0000330230203197328220823208800061412
:1000D00078282108232088008614782826082320E1
:1000E0008800061578282708232088008615782898
:1000F0004D200800FF30A000A00B7C2808008316CC
:100100000313860188018701831203138501870188
:1001100088018601A101A201AA01A801A9018316F3
:10012000031300309F0083160313051485148316F0
:100130000317081488148312031341309F00831699
:100140000313CF3099009A0118111812981618133A
:100150008316031787118312031398170800831659
:1001600003130C17831203138B170B170C130800C0
:02400E00D420BC
:02401000FF3F70
:00000001FF
