:020000040000FA
:0200000037289F
:040002000034003492
:08000800A500030EA4000C1377
:100010002D181328831203131E08AA00831203133A
:1000200045309F001B28831203131E08AB00831268
:10003000031341309F00B40AFF30AD06240E830045
:10004000A50E250E8B1709008F05820777344234E1
:100050006D346B345A343B343F3462347F347B34F8
:0E0060007E341F3435344F343D343C340800B8
:02006E0002216D
:100070003921AE01AF01B001B101B201B301FD20E0
:100080009F1C9F1402303402031D4028B4016430C9
:100090002A020318AA000318AE0A031847280A30D8
:1000A0002A020318AA000318AF0A03184F280130C8
:1000B0002A020318AA000318B00A0318572864304C
:1000C0002B020318AB000318B10A03185F280A308B
:1000D0002B020318AB000318B20A0318672801307B
:1000E0002B020318AB000318B30A03186F28B120C2
:1000F000C4203030AE073030AF073030B00730307A
:10010000B1073030B2073030B3072E0899000C1E0B
:100110008728FD202F0899000C1E8C28FD20300810
:1001200099000C1E9128FD202C3099000C1E962859
:10013000FD20FD20FD20310899000C1E9D28FD208A
:10014000320899000C1EA228FD20330899000C1ECD
:10015000A728FD200A3099000C1EAC28FD20392864
:10016000B0282E08A2002F08A1003008A6003108F0
:10017000A7003208A8003308A9000800A30A063027
:1001800023020319A301080086010030230203198A
:10019000DD28013023020319E2280230230203196B
:1001A000E728033023020319EC2804302302031943
:1001B000F128053023020319F6282208242088009C
:1001C0000614FB282108242088008614FB28260812
:1001D000242088000615FB2827082420880086157F
:1001E000FB282808242088000616FB28290824203C
:1001F00088008616FB28BE200800FF30A000A00B58
:10020000FF2808008316031386018801FF3087004A
:10021000831203138501870188018601A101A201D0
:10022000AD01AA01AB01BA01BB01BC01BD01BE0118
:10023000BF018316031300309F00831603130514B8
:10024000851483160317081488148312031341308E
:100250009F0083160313193099009A01181518127C
:100260009816181383160317871183120313981710
:100270000800831603130C17831203138B170B1735
:040280000C13080053
:02400E00D420BC
:02401000FF3F70
:00000001FF
