:020000040000FA
:020000003628A0
:040002000034003492
:08000800A500030EA4000C1377
:100010002D181328831203131E08AA00831203133A
:1000200045309F001B28831203131E08AB00831268
:10003000031341309F00FF30AD06240E8300A50E50
:10004000250E8B1709008F058207773442346D34F3
:100050006B345A343B343F3462347F347B347E34E7
:0C0060001F3435344F343D343C3408006C
:04006C009720C820F1
:1000700092209F1C9F1492204020592038283F280E
:100080002A080F39A2002A0E0F39A1002B080F39B8
:10009000A6002B0E0F39A7002C080F39A8002C0E34
:1000A0000F39A9000800A30A063023020319A3018F
:1000B0000800860100302302031972280130230250
:1000C000031977280230230203197C280330230206
:1000D00003198128043023020319862805302302DE
:1000E00003198B2822082320880006149028210851
:1000F00023208800861490282608232088000615CF
:100100009028270823208800861590282608232079
:100110008800061690282708232088008616902835
:1001200053200800FF30A000A00B9428080083167D
:100130000313860188018701831203138501870158
:1001400088018601A101A201AD01AA01AB01AC01A8
:100150008316031300309F008316031305148514C0
:1001600083160317081488148312031341309F0069
:1001700083160313CF3099009A011811181298169C
:100180001813831603178711831203139817080097
:10019000831603130C17831203138B170B170C13FF
:0201A000080055
:02400E00D420BC
:02401000FF3F70
:00000001FF
