:020000040000FA
:020000003628A0
:040002000034003492
:08000800A500030EA4000C1377
:100010002D181328831203131E08AA00831203133A
:1000200045309F001B28831203131E08AB00831268
:10003000031341309F00FF30AD06240E8300A50E50
:10004000250E8B1709008F058207773442346D34F3
:100050006B345A343B343F3462347F347B347E34E7
:0C0060001F3435344F343D343C3408006C
:04006C00A220D320DB
:100070009D209F1C9F142A080C1E472883120313DF
:1000800099009D202B080C1E8312031399004B200E
:10009000642038284A282A080F39A2002A0E0F396E
:1000A000A1002B080F39A6002B0E0F39A7002C0832
:1000B0000F39A8002C0E0F39A9000800A30A06303A
:1000C00023020319A301080086010030230203194B
:1000D0007D280130230203198228023023020319EC
:1000E00087280330230203198C28043023020319C4
:1000F000912805302302031996282208232088001E
:1001000006149B2821082320880086149B28260893
:100110002320880006159B282708232088008615A1
:100120009B2826082320880006169B2827082320C2
:10013000880086169B285E200800FF30A000A00BD8
:100140009F28080083160313860188018701831204
:1001500003138501870188018601A101A201AD0178
:10016000AA01AB01AC018316031300309F00831674
:1001700003130514851483160317081488148312B7
:10018000031341309F0083160313CF3099009A0167
:100190001811181298161813831603178711831253
:1001A000031398170800831603130C178312031305
:0801B0008B170B170C1308005C
:02400E00D420BC
:02401000FF3F70
:00000001FF
