:020000040000FA
:020000003628A0
:040002000034003492
:08000800A500030EA4000C1377
:100010002D181328831203131E08AA00831203133A
:1000200045309F001B28831203131E08AB00831268
:10003000031341309F00FF30AD06240E8300A50E50
:10004000250E8B1709008F058207773442346D34F3
:100050006B345A343B343F3462347F347B347E34E7
:0C0060001F3435344F343D343C3408006C
:04006C000521362113
:10007000AE20C72000219F1C9F1464302A02031861
:10008000AA000318AE0A03183D280A302A020318F2
:10009000AA000318AF0A0318452801302A020318E2
:1000A000AA000318B00A03184D2864302B02031865
:1000B000AB000318B10A031855280A302B020318A5
:1000C000AB000318B20A03185D2801302B02031895
:1000D000AB000318B30A031865283030AE07AF072A
:1000E000B007B107B207B3072E0899000C1E762897
:1000F0000021AE20C7202F0899000C1E7D2800216A
:10010000AE20C720300899000C1E84280021AE20A4
:10011000C7202C3099000C1E8B280021AE20C72050
:10012000310899000C1E92280021AE20C720320809
:1001300099000C1E99280021AE20C7203308990091
:100140000C1EA0280021AE20C7200D3099000C1EE7
:10015000A7280021AE20C7203828AD282A080F394B
:10016000A2002A0E0F39A1002B080F39A6002B0E72
:100170000F39A7002C080F39A8002C0E0F39A90041
:100180000800A30A063023020319A3010800860110
:10019000003023020319E028013023020319E52867
:1001A000023023020319EA28033023020319EF283F
:1001B000043023020319F428053023020319F92817
:1001C0002208232088000614FE2821082320880006
:1001D0008614FE282608232088000615FE282708F6
:1001E000232088008615FE2826082320880006166E
:1001F000FE282708232088008616FE28C120080034
:10020000FF30A000A00B022908008316031386010B
:100210008801870183120313850187018801860104
:10022000A101A201AD01AA01AB01AC018316031328
:1002300000309F00831603130514851483160317DB
:10024000081488148312031341309F00831603138C
:10025000053099009A011811181298161813831670
:1002600003178711831203139817080083160313CB
:0E0270000C17831203138B170B170C130800C7
:02400E00D420BC
:02401000FF3F70
:00000001FF
