:020000040000FA
:020000003628A0
:040002000034003492
:08000800A500030EA4000C1377
:100010002D181328831203131E08AA00831203133A
:1000200045309F001B28831203131E08AB00831268
:10003000031341309F00FF30AD06240E8300A50E50
:10004000250E8B1709008F058207773442346D34F3
:100050006B345A343B343F3462347F347B347E34E7
:0C0060001F3435344F343D343C3408006C
:04006C00E420152156
:10007000DF209F1C9F1464302A020318AA00031873
:10008000AE0A03183B280A302A020318AA000318F4
:10009000AF0A0318432801302A020318AA000318E4
:1000A000B00A03184B2864302B020318AB00031866
:1000B000B10A031853280A302B020318AB000318A7
:1000C000B20A03185B2801302B020318AB00031897
:1000D000B30A031863282E0899000C1E6D28DF2030
:1000E0002F0899000C1E7228DF20300899000C1E82
:1000F0007728DF20310899000C1E7C28DF20320889
:1001000099000C1E8128DF20330899000C1E8628D8
:10011000DF208D20A62038288C282A080F39A2003D
:100120002A0E0F39A1002B080F39A6002B0E0F390C
:10013000A7002C080F39A8002C0E0F39A9000800C1
:10014000A30A063023020319A30108008601003028
:1001500023020319BF28013023020319C4280230E7
:1001600023020319C928033023020319CE280430BF
:1001700023020319D328053023020319D8282208A3
:10018000232088000614DD282108232088008614F7
:10019000DD282608232088000615DD2827082320CF
:1001A00088008615DD282608232088000616DD280D
:1001B0002708232088008616DD28A0200800FF30AD
:1001C000A000A00BE1280800831603138601880114
:1001D0008701831203138501870188018601A1012C
:1001E000A201AD01AA01AB01AC01831603130030DB
:1001F0009F00831603130514851483160317081430
:1002000088148312031341309F0083160313CF30E9
:1002100099009A01181118129816181383160317CB
:1002200087118312031398170800831603130C1702
:0C023000831203138B170B170C1308002C
:02400E00D420BC
:02401000FF3F70
:00000001FF
