:020000040000FA
:020000003428A2
:040002000034003492
:08000800A500030EA4002A1854
:1000100011280C13831203131E08A80045309F00FB
:1000200018280C13831203131E08A90041309F00E7
:10003000FF302A3AAA00240E8300A50E250E8B1746
:1000400009008F058207773442346D346B345A349B
:100050003B343F3462347F347B347E341F34353458
:080060004F343D343C3408002C
:080068008520B32080209F1CBD
:100070009F140C1E422883120313802029080C1E93
:1000800083120313462059203628452828080F39A3
:10009000A200280E0F39A10029080F39A600290E49
:1000A0000F39A7000800A30A043023020319A30193
:1000B000080086010030230203196A280130230258
:1000C00003196F2802302302031974280330230216
:1000D0000319792822082120880006147E28210887
:1000E0002120880086147E282608212088000615F5
:1000F0007E2827082120880086157E2853200800A6
:10010000FF30A000A00B822808008316031386018D
:100110008801870183120313850187018801860105
:10012000A101A201AA018316031300309F008316C8
:1001300003130514851483160317081488148312F7
:10014000031341309F0083160313CF3099009A01A7
:100150001811181298161813831603178711831293
:10016000031398170800831603130C178312031345
:080170008B170B170C1308009C
:02400E00D420BC
:02401000FF3F70
:00000001FF
