:020000040000FA
:020000006F2867
:040002000034003492
:08000800A500030EA400831201
:1000100003138C1E40281A08B500B60A01303602B8
:10002000031D2E2802303602031D3128033036020C
:10003000031D342804303602031D402805303602E3
:10004000031D372806303602031D3A2807303602D2
:10005000031D3D2808303602031D40283508BA002C
:1000600040283508BB0040283508BC00402835082A
:10007000BD0040283508BE0040283508BF00402894
:100080000C132D184C28831203131E08AA00831288
:10009000031345309F005428831203131E08AB003E
:1000A0008312031341309F00FF30AD06240E8300FE
:1000B000A50E250E8B1709008F0582077734423471
:1000C0006D346B345A343B343F3462347F347B3488
:0E00D0007E341F3435344F343D343C34080048
:0200DE003B21C4
:1000E0007321AE01AF01B001B101B201B3013621FC
:1000F0009F1C9F14B40A0230B402031D7828B40177
:1001000064302A020318AA000318AE0A03188028D4
:100110000A302A020318AA000318AF0A0318882815
:1001200001302A020318AA000318B00A0318902805
:1001300064302B020318AB000318B10A0318982887
:100140000A302B020318AB000318B20A0318A028C8
:1001500001302B020318AB000318B30A0318A828B8
:10016000EA20FD203030AE073030AF073030B00726
:100170003030B1073030B2073030B3072E08990065
:100180000C1EC02836212F0899000C1EC5283621C8
:10019000300899000C1ECA2836212C3099000C1EFC
:1001A000CF28362136213621310899000C1ED62859
:1001B0003621320899000C1EDB28362133089900BD
:1001C0000C1EE02836210A3099000C1EE528362145
:1001D0007128E9282E08A2002F08A1003008A600E7
:1001E0003108A7003208A8003308A9000800A30AB4
:1001F000063023020319A301080086010030230200
:10020000031916290130230203191B290230230286
:10021000031920290330230203192529043023025E
:1002200003192A290530230203192F2922085C20EB
:1002300088000614342921085C208800861434299B
:1002400026085C2088000615342927085C208800D1
:100250008615342928085C208800061634292908C8
:100260005C20880086163429F7200800FF30A000A3
:10027000A00B382908008316031386018801FF307C
:100280008700831203138501870188018601A1017C
:10029000A201AD01AA01AB01BA01BB01BC01BD01C4
:1002A000BE01BF018316031300309F0083160313A2
:1002B0000514851483160317081488148312031376
:1002C00041309F0083160313193099009A011815C5
:1002D0001812981618138316031787118312031325
:1002E000981718160800831603130C178C16831220
:0A02F00003138B170B170C13080003
:02400E00D420BC
:02401000FF3F70
:00000001FF
