:020000040000FA
:02000000912845
:040002000034003492
:08000800BB00030EBA000B1946
:100010000D280C1B13288C1A23280B110630810085
:100020006920A10A51280C131E081F1D1A28A900B7
:100030001F111C28A8001F15000000000000000070
:1000400000009F1451281A08B9002C303902031DF2
:100050003128B8013508AC003608AB003708AA00D3
:10006000512800303902031D3D28B8013508AF0082
:100070003608AE003708AD005128380882074328FB
:1000800048284D28B80130303902B500B80A512847
:1000900030303902B600B80A512830303902B70082
:1000A000B80A3A0E8300BB0E3B0E09000F398207D7
:1000B000773442346D346B345A343B343F346234D9
:1000C0007F347B347E341F3435344F343D343C34FC
:1000D0000800860121088207732878287D28822855
:1000E00087288C28A1012D08562088008616080034
:1000F0002E0856208800061608002F085620880073
:10010000861508002A0856208800061508002B08C6
:1001100056208800861408002C08562088000614F3
:020120000800D5
:0E012200031783168901FF3088000313FF3096
:1001300085008601880181308100E0308B000C173A
:100140008C161813981618121815193099009F1349
:100150009F121F12831241309F00063081009817B2
:10016000181318169F14AA01AB01AC01AD01AE0122
:10017000AF01A101A901A801A001B801B501B60113
:10018000B7012808B100F6203308A4003208A30004
:100190003408A2002908B100F6203308A70032086D
:1001A000A6003408A500D520C1280C1E0800200890
:1001B0008207E228E428E628E828EA28EC28EE2846
:1001C000F028A0012408F2282308F2282208F228A7
:1001D0002C30F3282708F2282608F2282508F228D0
:1001E0000A30F328303E9900A00A0800B301B2019A
:1001F000B40164303102031C0029B30AB100F928AC
:100200000A303102031C0729B20AB100002901306B
:0C0210003102031C0800B40AB1000729E9
:02400E00D420BC
:02401000FF3F70
:00000001FF
